:020000041004E6
:1000000000600020CD330410A5360410A73604107C
:10001000AA5555AA45554C420000000000000000BA
:10002000000000000000000000000000A9360410DD
:10003000000000000000000023320410AB36041062
:10004000B536041025320410000000000000000046
:100050000137041027320410033704103332041020
:100060000000000000000000000000000000000090
:100070000000000035320410373204103932041009
:1000800000000000293204102B3204102D3204101D
:100090002F32041031320410213204103B3204108C
:1000A0000000000000000000000000000000000050
:1000B0000000000000000000000000000000000040
:1000C000EFF31482EFF309811C4880F31488BFF327
:1000D0006F8FF0B543464C4655465E466746F8B4CA
:1000E000174CEFF30883236006B4164C2068164CB7
:1000F0002060164C2068164C2060164C2068164C68
:100100002060164C276800202060BFF34F8F30BF5F
:1001100027600B4C246884F3088882B003BCF8BCC9
:100120009846A146AA46B346BC46F0BC04BC80F340
:10013000098881F31488BFF36F8F10470000000017
:100140000800002004ED00E0D003002024ED00E0D2
:10015000CC03002000E200E0D4030020080020408F
:10016000002243088B4274D303098B425FD3030AF6
:100170008B4244D3030B8B4228D3030C8B420DD309
:10018000FF22090212BA030C8B4202D31212090297
:1001900065D0030B8B4219D300E0090AC30B8B42D5
:1001A00001D3CB03C01A5241830B8B4201D38B0383
:1001B000C01A5241430B8B4201D34B03C01A524128
:1001C000030B8B4201D30B03C01A5241C30A8B426B
:1001D00001D3CB02C01A5241830A8B4201D38B0256
:1001E000C01A5241430A8B4201D34B02C01A5241FA
:1001F000030A8B4201D30B02C01A5241CDD2C3096C
:100200008B4201D3CB01C01A524183098B4201D3E7
:100210008B01C01A524143098B4201D34B01C01AD2
:10022000524103098B4201D30B01C01A5241C3084A
:100230008B4201D3CB00C01A524183088B4201D3B9
:100240008B00C01A524143088B4201D34B00C01AA5
:100250005241411A00D20146524110467047FFE711
:1002600001B5002000F006F802BDC0460029F7D015
:1002700076E770477047C0468446081C6146FFE732
:100280001FB500F08BFB002801D40021C8421FBD20
:1002900010B500F00FFB4042013010BD10B500F06A
:1002A0007DFB002801DB002010BD012010BDC046F1
:1002B00010B500F073FB002801DD002010BD012007
:1002C00010BDC04610B500F01DFB002801DC002069
:1002D00010BD012010BDC04610B500F013FB002872
:1002E00001DA002010BD012010BDC046437802781D
:1002F0001B021A438378C0781B041343000618437B
:100300007047C046030A4B7003021B0E8B70030E2E
:100310000870CB707047C04603005A78007812020C
:1003200002439878197900040243D87800061043F4
:100330005A7912020A43997909040A43D9790906BC
:1003400011437047030A5370030C9370030ED3706C
:100350000B0A53710B021B0E93710B0E107011716F
:10036000D3717047F0B54646D6464F464D0242021D
:10037000C0B5520A6E0A4700B0463F0E4E00C40F89
:10038000D00094463B008246360EC90FAD098C4220
:100390006DD0B81B814600284DDD002E00D188E0CD
:1003A000FF2F5AD08023DB041D434B4601221B2B19
:1003B0000ADC2B004A464946D3402022521A954077
:1003C0002A00551EAA411A4353469A1A530100D4D3
:1003D000B9E092019609300000F0E6FC053886404D
:1003E000874200DDD4E03300C71B20200137FB40EB
:1003F000C71BBE403200561EB24100271A435307A6
:1004000004D00F231340042B00D00432530100D436
:100410009CE07B1CFE2F00D19AE09201520A944688
:10042000DBB2D8056346E407184320431CBC904662
:100430009946A246F0BD002849D0F31B002F00D0FA
:10044000B6E05246002A60D0013B002B00D1FCE010
:10045000FF2E00D0B4E00C004246002A78D0802065
:10046000C00310434202530A9C46FF23D9E7B91B3D
:10047000002971DD002E3FD0FF2FEED08023DB045A
:100480001D4301221B2907DC2A002023CA40591AD8
:100490008D406B1E9D412A435244530153D5013771
:1004A000FF2F55D001237B49134052080A401A43BD
:1004B000A5E7002D2CD001235B429C46E1444B462E
:1004C000002B00D1ADE0FF2F00D06EE7C5E7FE2086
:1004D0007E1C304260D1002F00D093E05246002AAB
:1004E00000D1B6E0002D9CD0521B500100D4C3E0D7
:1004F00053460C00EA1A82E7002D09D00139002981
:1005000000D18BE0FF2FBCD1A7E70C00424637009B
:10051000FF2FA2D05202530A9C46FBB281E7FE2174
:100520000137394265D1002B7ED1002800D1AAE0E5
:10053000002D00D175E72A0052440027530102D54F
:10054000554B01371A40530700D05AE7D208DFE76E
:100550000022FF23944664E70029E0D0F31B002F1C
:100560003ED0FF2E00D177E780220100D204114354
:100570008A4601221B2B08DC524620215046DA40D5
:10058000CB1A9840431E984102433700521984E722
:10059000414A3F1A324032E753465E1B73012DD465
:1005A000002E00D017E7002200240023944638E7ED
:1005B000FF2E00D14FE780225046D20410438246DE
:1005C00001221B2B08DC524620245046DA40E31A55
:1005D0009840431E984102430C003700AA1AF5E6E2
:1005E000002893D0013B002B4FD0FF2EC1D14246B3
:1005F00033E7FF2FACD055446A08A4E753460C00FC
:10060000EE1AE8E65346002B28D1002D00D022E751
:100610008023DB039C460024FF2302E72A00524488
:100620003BE753465A1BD1E6002800D114E7002DC2
:1006300000D112E78023DB031A4200D10DE74146C7
:10064000194200D009E7424607E70C003700AA1A12
:10065000BCE6002D13D00C00C446E2E6002D00D10C
:10066000FBE68023DB031A4200D1F6E6404618423F
:1006700000D0F2E60C00EFE6002A00D063E700228B
:1006800000249446CDE6C446CBE62A003700524407
:1006900003E7C046FFFFFF7DFFFFFFFBF0B54F46BE
:1006A0004646D6464502C0B547000C1C6D0A3F0EB3
:1006B000C60F002F66D0FF2F6CD00023EA008025E4
:1006C00099469A46ED0415437F3F60026100430A54
:1006D0009846090EE40F002948D0FF2910D0802247
:1006E000D800D2040243904600207F394A463300A6
:1006F0007F1A02436C4992008A586340DBB29746E6
:10070000002B6DD10220FF3F33E0002398462600E6
:10071000454682465346022B00D17FE0032B00D191
:1007200094E0012B17D038007F3000285FDD6B0785
:1007300004D00F232B40042B00D004352B0103D50C
:1007400038005A4B80301D40FE2867DCAD016D0A31
:10075000C0B202E01E0000200025C0052843F607B5
:1007600030431CBC90469946A246F0BD002B2BD1CD
:1007700001204A4633004E49024392008A586340A2
:10078000DBB29746002D13D104239946033B002783
:100790009A469AE7002D05D108239946063BFF2784
:1007A0009A4692E70C239946093BFF279A468CE725
:1007B000280000F0F9FA7627431F9D4000237F426E
:1007C00099469A463F1A80E7180000F0EDFA424633
:1007D000431F76219A404942091A9046002085E736
:1007E000FF21032082E71E00FF200025B5E701233B
:1007F0001B1A1B2BAFDC9E372900BD40D9406A1E57
:1008000095410D436B0704D00F232B40042B00D0E0
:1008100004356B0144D5012000259EE7FF2000250B
:100820009BE780250026FF20ED0396E700239846EE
:100830008020C003054209D04346034206D1454605
:1008400005436D022600FF206D0A86E78020C00365
:1008500005436D02FF206D0A7FE741466A014801AA
:10086000824219D21B210025013F012614006D0090
:100870005200002C01DB904201D8121A3543013995
:100880000029F3D1501E824138007F301E001543ED
:10089000002800DD4BE7AAE71A210125121AE4E738
:1008A000AD0100206D0A58E72C2B0510FFFFFFF764
:1008B0006C2B051070B542004E024C0045026D0ACB
:1008C000120EC30F760A240EC90FFF2A0FD0FF2C79
:1008D00011D00120A24200D070BDB542FCD18B42A4
:1008E0000DD0002AF8D12800451EA841F4E70120C8
:1008F000002DF1D1EBE70120002EEDD1E9E700203A
:10090000EAE7C046F0B5420046024D024C00C30F74
:10091000760A120E6D0A240EC80FFF2A1FD0FF2C74
:1009200010D0002A1FD171427141002C01D1002D3D
:100930001ED000290ED183421ED00221581E08402D
:100940000138F0BD002D26D1002AF4D17142714149
:100950000029F0D00028F4D101204042F1E7002E18
:1009600019D1FF2CEED0002CE5D1002DE3D1E4E726
:100970000020002EE5D0E0E7A24205DCEADBAE4233
:1009800002D8E7D30020DCE741424141484202213E
:1009900008400138D5E702204042D2E7F0B54200D6
:1009A00046024D024C00C30F760A120E6D0A240E49
:1009B000C80FFF2A0DD0FF2C0FD0002A23D171427F
:1009C0007141002C0FD1002D0DD10020002E14D02C
:1009D0000DE0002E10D1FF2C15D1002D0CD1002AD6
:1009E00003D171427141002908D1834210D0022104
:1009F000581E0840013800E00220F0BD0028FCD15C
:100A000001204042F9E7002CEFD1002DEDD1EEE7B7
:100A1000A24205DCF2DBAE4202D8EFD30020ECE7C5
:100A2000414241414842022108400138E5E7C046C1
:100A3000F8B557464E464546DE464402E0B5450009
:100A40000F1C640A2D0EC60F002D47D0FF2D4DD070
:100A5000002380209A469B46E400C00404437F3D67
:100A60007802430A99467A00FB0F9846120E4B46CD
:100A700044D0FF2A11D0D8008023DB0403439946D9
:100A800000207F3AAD18474653467740691C0F2B2C
:100A90003FD8724A9B00D3589F46FF35002B00D0A9
:100AA00079E0524602231A4392460220EBE747467A
:100AB0004C4683465B46022B28D0032B00D1C6E070
:100AC000012B4FD100200024C005FF0720433843ED
:100AD0003CBC90469946A246AB46F8BD002C71D16D
:100AE00004239A46033B00259B46B9E7002C63D1BB
:100AF00008239A46063BFF259B46B1E7002B50D1C1
:100B0000524601331A4392460120BCE7FF200024DD
:100B1000DAE74846260C2404220C0404240C4B4635
:100B200020001B0C504374435A435E431219030CBC
:100B30009B189C4203D980225202944666440004CA
:100B40001A04000C12189401601E84411B0C920EB2
:100B50009B1914439B011C431B0172D501206308A0
:100B600004401C4308007F3000283CDD630704D0AC
:100B70000F232340042B00D00434230103D58031FC
:100B80000800374B1C40FE28C0DCA401640AC0B238
:100B90009AE737008EE7524603231A439246032012
:100BA00071E7484600F000F94A46431F9A402D1A63
:100BB00091460020763D66E70C239A46093BFF25C7
:100BC0009B464DE7200000F0EFF87625431F9C4040
:100BD00000236D429A469B462D1A41E78024002748
:100BE000FF20E40370E701231B1A1B2B00DD69E7DC
:100BF0009E3120008C40D840631E9C410443630713
:100C000004D00F232340042B00D0043463011AD5F1
:100C10000120002458E78020C003044209D04B463D
:100C2000034206D14C46044364024746FF20640A4F
:100C30004AE78020C003044364023700FF20640AAF
:100C400042E729008EE7A4010020640A3CE78020E7
:100C5000C00304436402FF20640A35E7AC2B05108F
:100C6000FFFFFFF741024200C30F490A0020120EA6
:100C70007E2A03D99D2A02D9094A981870478020F4
:100C800000040143952A07DC9620821AD14048428D
:100C9000002BF3D10800F1E7963A9140F7E7C04600
:100CA000FFFFFF7F70B5002813D0C317C5185D4044
:100CB000C40F280000F078F89E2301001B1A962B21
:100CC0000FDC082801DD08398D406D026D0AD8B2AD
:100CD00002E0002400200025C0052843E40720434B
:100CE00070BD992B0BDD05222E00121AD640020092
:100CF0001B3295402800451EA841350005430529B3
:100D000001DD4A1F95402A00084E3240680709D08D
:100D10000F202840042805D00432500102D59F231B
:100D200032405B1A9201550AD8B2D5E7FFFFFFFBAC
:100D300070B5051E0ED000F037F89E2304001B1A74
:100D4000962B0CDC082801DD083CA5406D026D0ADD
:100D5000D8B201E000200025C005284370BD992BC2
:100D600009DD020029001B3291404A1E91410522F3
:100D7000121AD5400D43052C01DD621F9540290054
:100D8000084E31406A0709D00F202840042805D0BA
:100D900004314A0102D59F2331401B1B89014D0AB2
:100DA000D8B2D9E7FFFFFFFB1C2101231B049842A7
:100DB00001D3000C10391B0A984201D3000A0839EC
:100DC0001B09984201D30009043902A2105C4018A3
:100DD0007047C04604030202010101010000000047
:100DE00000000000024A1368013313607047C046D8
:100DF00000030020124AD3691B061B0F4370D9B2AF
:100E0000D369104A1B071B0F83700F4B1B6843608D
:100E1000934212D10D4B1A680D4B9A420BD1042309
:100E20000370002901D1012343700A4B9B8A0133CF
:100E30009B00836070470223F2E70123F0E7C0467E
:100E40000000904041A00002280090401C000010CB
:100E500044A000F200001040F0B5070085B001ACDE
:100E60000E0020001500FFF7C5FF23783B70637864
:100E70003370A3782B7005B0F0BD10B503F032F8D5
:100E800010BD10B503F04AF810BD10B503F01CF802
:100E900010BD032070470000F0B5204C1600A5449B
:100EA00011910400EFF310830A9372B600221C4BD9
:100EB0001A7011F069FB07002000FFF7EAFF050038
:100EC000200002F069FC3B1CAF4200D92B1CDAB2B7
:100ED000A24200D9231CD9B2C2B2914200D9031C4C
:100EE000DBB2104A990001938B5801338B50019B60
:100EF000002B07D10A9B83F310880020AF239B00AF
:100F00009D44F0BD019B012B10D10021064B1A7AA4
:100F10001972D2B230BF1A72ECE7C04644FDFFFF2F
:100F20000C0000200403002000007040E54C83A862
:100F30002670119B2371FFF75DFF237AE249DBB234
:100F40000E938B88E14A9BB21393136860911493BC
:100F500000230C94089286A91A000898C0329200C7
:100F600080589A0001335050082BF5D1D84BD94FF7
:100F70001B68D94E1593D94BD94D1B6AD94C169382
:100F80008023DB051A6817925A6818929A6819929A
:100F9000DA681A921A691B925A691C929A691D9210
:100FA000DA690F92DA6A1E921A6B1F925A6B2092BC
:100FB0001A8F5B6C92B22192CB4A2293D36823930F
:100FC000137FDBB22493938C9BB22593C74B1B7882
:100FD000DBB22693C64B1B78DBB22793136B2893A7
:100FE000C44B1B78DBB22993138FC34A9BB22A935D
:100FF000C24B1B78DBB22B93C14B1B78DBB22C931B
:10100000C04B1B78DBB22D93BF4B1B78DBB22E930A
:10101000BE4B1B78DBB22F93BD4B1B78DBB23093FA
:101020003B6831937B6832933B7CDBB233933B7DEF
:10103000DBB23493B74BDB7FDBB235933B8D9BB296
:101040003693FB6A37933B8E9BB2389333686F932A
:1010500073687193B38B7393338C7593B38C77935D
:10106000338D7993F36A7B93AB4B1B887D93336D00
:101070007F93B36D81932B6870936B687293AB8B86
:1010800074932B8C7693AB8C78932B8D7A93EB6A3D
:101090007C93A24B1B887E932B6D8093AB6D8293C8
:1010A000B0231B061B68399363683A93A3683B938C
:1010B000238A9BB23C93A38A9BB23D93A3693E9340
:1010C000237FDBB23F93238E9BB24093636B4193AC
:1010D000A36B4293E36B4393236C4493636C4593FC
:1010E000A36C469393889BB2479313899BB2489312
:1010F000137CDBB24993137DDBB24A93138B9BB213
:101100004B93137FDBB24C93854B998889B24D91F9
:10111000198989B24E91197CC9B24F91197DC9B212
:101120005091198B89B25191197FC9B252917D4961
:1011300008684968539054917B498C460968604619
:1011400055916146097AC9B25691C02109014158A9
:101150000D905F4802976190604812906248069037
:101160006248629062486390624864906348659008
:1011700063486690634867906348689063486990E5
:1011800063486A9063486B9063486C9063486D90C5
:1011900003920493634B96AA09934B425941634BC4
:1011A00049421940002394469EAA5F918EA8059259
:1011B000052261465A435E4FD21957685F5017683F
:1011C00005991F5097685F50D768A6AA9F500433AF
:1011D000202BEDD18123DB055A6857921A7BD2B2BE
:1011E00058925A8B92B259921A8B92B25A925A6A68
:1011F0005B929A6A1B885C929BB25D93C0231B062C
:101200009B685E93019B032B06D19022C023D205DD
:1012100051689B050B435360464B1B680593643B29
:101220000793454B1A000B93079B1968109302C252
:10123000059904339942F8D1404B19600C9B1F79F2
:1012400019788023DB051B685B0A4B409F4300D065
:1012500050E683AA537892781B011343112B04DDC7
:10126000374B38001F6002F033F89023DB055A68D3
:10127000344B01201A6000F03FFEFEF721FF0020F2
:1012800000F03AFE304B1B78002B00D0A8E02F492D
:101290004B685B0600D580E02D4B2E484A680068FD
:1012A0005C6A844266D12C4849680068884204D050
:1012B00008994240096811425CD1284A596812686D
:1012C00051404DE0000020400000104000E100E0EF
:1012D00020ED00E0000040400000A04000009040F1
:1012E0000000B0400000F0400000304028003040D6
:1012F0002C003040340030400000D04048003040E6
:101300005000304054003040580030405C003040C5
:1013100060003040050040404C00A0404C00B04010
:101320000000E04010E000E00000704051E5CC1A01
:10133000080000A0000004106803002064030020DF
:1013400014000020180000200C000020FCE100E048
:1013500000ED00E0CC030020D4030020D0030020E7
:10136000C90007D45B685A40530116D5099B1B6816
:101370009B0712D58020154A400313681B09D91C0E
:10138000814206D312495B18116809099942FBD1C1
:1013900003E013681B099942FBD883AA537892781B
:1013A0001B011343112B05DD012001F091FF094BB7
:1013B000094A1A60019B032B00D09BE59022D205BD
:1013C000536806490B40536094E5C046100000483E
:1013D0000400F0FF14000020CCBCECFCFFFFFFCFAA
:1013E0000123E04A13830023938113610B98079B29
:1013F00002C80B90180002C0109907908B42F5D1DB
:101400000599D94B1960609B13999980089B149991
:101410001960002386A98C4605936046059B9900B8
:1014200008581900089BC03189005850059B0133AA
:101430000593082BF1D1619B15991960129B1699A0
:10144000196280231799DB05196018995960199959
:1014500099601A99D9601D9999611C9959611B99D4
:1014600019610F9999620F99D9611E99D9621F99D3
:101470001963209959632199198722995964069B08
:101480002399D960069B24991977069B25999984FD
:10149000629B26991970639B27991970069B28995E
:1014A0001963649B29991970069B2A991987659B72
:1014B0002B9919702C99669B1970679B2D9919703F
:1014C000689B2E991970699B2F9919706A9B3099A6
:1014D0001970029B31991960029B32995960029BE5
:1014E00033991974029B349919756B9B3599D97787
:1014F000029B36991985029B3799D962029B3899CC
:1015000019866F9B6C993360719B7360739B9BB260
:10151000B383759B9BB23384779B9BB2B384799BD7
:101520009BB233857B9BF3627D9B9BB20B807F9B41
:101530003365819BB365709B05262B60729B6B6046
:10154000749B9BB2AB83769B9BB22B84789B6D99EB
:101550009BB2AB847A9B9BB22B857C9BEB627E9B80
:101560009BB20B80809B39992B65829BAB65B02326
:101570001B061960099B549996AD5960002309997F
:101580008B60099B539919603A9B63603B9BA360F6
:101590003C9B23823D9BA3823E9BA3613F9B47993B
:1015A0002377419B6363429BA363439BE363449B19
:1015B0002364459B6364469BA364409B2386039BF3
:1015C0008EAC9980039B48991981039B49991974A2
:1015D000039B4A990398197540214B9B8B430383C6
:1015E000039B4C981877049B4D989880049B4E98C9
:1015F0001881049B4F981874049B50981875519B40
:101600005F988B431900049B1983049B52991977A7
:101610000D9B559919600D9B56991972C0230D9910
:101620001B01C8509EA833007B4350495B18795971
:1016300059603959196039589960A6A97958043701
:10164000D960202FEFD181235799DB055960589934
:101650001973599959835A9919835B9959625C99FD
:1016600099625D991980C0235E991B069960129B4F
:101670001B7A002B37D1119B002B34D00921138901
:101680000B408B4204D18023DB05DB699B0527D40B
:10169000112113890B408B4204D18023DB05DB69C8
:1016A0005B051DD4212113890B408B4204D180237B
:1016B000DB05DB691B0513D4412113890B408B42E9
:1016C00004D18023DB05DB69DB0409D41389812283
:1016D0001340934207D18023DB05DB699B0402D5CD
:1016E0000122234B5A60019B032B05D19022D20586
:1016F000536820490B4053600C9B0E9A1A72019B51
:10170000032B2BD10121002001F0A0FE0E9BDB0753
:1017100001D4FFF7EFFB00F08FFA6EAB5880023375
:101720001B885B0515D4144B1B881B0711D5902211
:10173000124BD20511691B685B1A1B021B12D917C9
:101740005B184B40202B04DC13692D3311698B424D
:10175000FCD215220A4B1A70FFF7CCFB00210800BF
:10176000D2E7C0460000104864030020080000A033
:10177000FCE100E0FFFFFFCFC000002018000020C8
:101780000000C040024A138ADB07FCD57047C04600
:1017900000001040084B10B51A68084B9A4209D156
:1017A0003F22074B40061A81000C2E3A98611A809E
:1017B000FFF7E8FF10BDC04614000020CCBCECFCD5
:1017C00000001040084B10B51A68084B9A4209D126
:1017D0003F22074B80081A810C3A986119641A80DD
:1017E000FFF7D0FF10BDC04614000020CCBCECFCBD
:1017F00000001040F7B5037901680193002B2BD14D
:101800008022D20553688B435360802200240F2727
:10181000D2050B000125E3402B420BD0E6B2A3001A
:10182000072C24D83D009D40D66AAE43019D9D40C3
:101830002E43D66201341A2CEBD180234279DB058A
:10184000012A3DD1DA680A43DA608279012A3AD165
:101850009A6811439960F7BD019B062BD5D1802270
:10186000D20553680B43536000230193CDE708254D
:101870006D42AC46B4446546072D09D83D00203B77
:101880009D40166BAE43019D9D402E431663D1E7EC
:10189000103E072E09D83D00403B9D40566BAE439D
:1018A000019D9D402E435663C4E73D00603B9D4033
:1018B000168FAE43019D9D402E43B6B21687B9E701
:1018C000DA688A43C0E79A688A439A60C3E70023CC
:1018D00003608380837170478023DB05D863704782
:1018E0008023DB05186470478023DB05012901D1C3
:1018F000D86370471864FCE78022D2051368434020
:1019000013607047802341680268DB0501290CD110
:101910001969114319618168012909D19969114334
:101920009961596991435961704719699143F1E788
:101930008023DB05002902D199699143F0E75969B9
:101940000A435A61F0E78023DB05DA69002902D0F7
:101950001043D86170478243DA61FBE78023DB05DF
:10196000986270478023DB055B6A1840431E9841EC
:10197000C0B27047012270B503880D009343038005
:101980004979040008002388274E023210404003A2
:10199000334003432380254B4900C85A2968244B10
:1019A0004843181A234B994229D84900FEF7D8FB1F
:1019B0003022238893432380C023626892B29B0223
:1019C000134363606368EA889B0A9B021343032204
:1019D000062180B2636020852B791A40238852004B
:1019E0008B43134323802A7A0823012A18D12288A3
:1019F00013432380012322681343236070BD0E4BE1
:101A00009942DFD85143FEF7ABFB30222388934342
:101A10001A001023134323806268802392B2CEE71A
:101A200022889A432280E5E7FF9FFFFF6804002099
:101A30000024F400A0860100801A0600024B036017
:101A40000023436003727047881300008A880B8864
:101A50001343CA8813430A8913434A8849895200A9
:101A6000C9030A431343C360704701747047007E83
:101A7000C0B270478023028813430380704702235B
:101A800000680006C00F181A7047006B0840411E1E
:101A90008841C0B270478163704740690007800F7A
:101AA0007047C02380211B061A680A431A601A680F
:101AB0008A431A6070470000410010B50E48FEF7D7
:101AC0004FFBFE23421E1B029A4212D30223012027
:101AD0000A4A0B491374136800020B401843106044
:101AE00010BD5B00DBB24008FF28FAD80138C0B255
:101AF000EEE70223F8E7C0460024F400000040406F
:101B0000FF00FFFF70B5040001264068FFF7D4FF17
:101B10000420104B21785A683140890082430A43DF
:101B20005A604022A57818683540AD01904328439B
:101B300018608020E1781A683140C90182430A4365
:101B40001A6061781A686138014082430A431A605A
:101B500070BDC04600004040014A024B0CC07047B7
:101B60000107000040420F00054B0222596800287F
:101B700002D00A435A60704791435960FBE7C04660
:101B800000004040014B98607047C0460000404054
:101B9000014B98687047C04600004040034B1B7BD8
:101BA0001840431E9841C0B27047C04600004040F4
:101BB00010B50420FFF7F2FF012800D010BD014B43
:101BC0009B68F6E7000040400222084B084819785D
:101BD0000A4308491A700A7BD20704D502211A78F1
:101BE0008A431A7070470268F5E7C046800040409B
:101BF0008C004040000040400321044A0840136824
:101C00000349C0050B400343136070470000404088
:101C1000FFFF7FFE014BD8627047C0460000404086
:101C2000044B1A6A012902D110431862704782439B
:101C30001A62FBE700009040274B284A197A128964
:101C4000CBB292B200293CD109201040093843425E
:101C50005841112340011340112B01D12F33184358
:101C600021231340212B01D180231843412313400A
:101C7000412B02D180235B00184381231340812B29
:101C800002D180239B00184302231100FF33194027
:101C9000994202D18023DB0018431100104B1940F8
:101CA000994202D180231B01184305231340052BC1
:101CB00001D110231843D243930701D108231843BD
:101CC00070470120022BFBD00220042BF8D0083BE8
:101CD000584258418000F3E700009040000010484F
:101CE00001040000054B0122196B002802D00A43B1
:101CF0001A63704791431963FBE7C0460000304008
:101D0000F8B54A4C0500236B01681B0700D56DE050
:101D100009014748FEF724FAC3099AB2A284454A4A
:101D2000DB0101301340C31A5B089BB23F2B02D981
:101D30003F223F3B1340032760263F4ADBB213702C
:101D40003E4B2A7918783A405201B043104318703C
:101D500001206979227F39404901B2430A43227741
:101D6000AA7919780240BA400730814311431970AB
:101D7000217F81430A432277EA79002A38D1022160
:101D80001A788A431A70227F8A43012022772A7A9E
:101D9000216B1600C2402A4F06407602394031437B
:101DA0002163216B274E0240314012020A43226315
:101DB000697A226B0E00C140234F06403A40B603B9
:101DC00032432263226B214E01403240C90311434A
:101DD0002163AA7A197802400F301201814311431E
:101DE0001970237F83431A432277F8BDC90090E717
:101DF000022A0CD1042019781143197019788143F3
:101E00001970217F0A432277227F8243BDE7022196
:101E10001A780A431A700422187810431870207F29
:101E200001432177217F0A43AFE7C04600003040DD
:101E30000000127A80FF7F00280030402C003040E4
:101E4000FFFDFFFFFFFEFFFFFFBFFFFFFF7FFFFF65
:101E5000054B002805DA5B681840431E9841C0B264
:101E600070471B8BF8E7C046000030400721044A4A
:101E7000084013783131C0008B430343137070471F
:101E8000340030401F21F0B50124037819408C4004
:101E900081785A09002928D0FF2103278C461F404A
:101EA000FF006546B94040785EB280012840C943D2
:101EB000B840002E0EDA0F263340083B0C4D9B082D
:101EC0009B005B19DE6931400843D861094B9200E1
:101ED0009C50F0BDB308C026064D9B005B19B600B0
:101EE0009F59394008439851F0E72032EEE7C04649
:101EF00000ED00E000E100E0054B04221969002834
:101F000002D00A431A61704791431961FBE7C0464A
:101F100000ED00E043425841014B5B3018707047C0
:101F2000A404002037B50F4B05001978AB2202231B
:101F300001A800F0ABFF041E02D0012420003EBD2A
:101F40006B466A465B7910791B02C01800B2FEF737
:101F5000A9FE0549FEF7A2FB0449FEF703FA286033
:101F6000ECE7C046A40400200000F04300002A4231
:101F700013B568460D4C012321222178073000F06B
:101F800085FF012300280FD16A46D1798022524271
:101F90000A43684669460730CA712122217800F059
:101FA0000FFF431E9841C3B2180016BDA4040020C1
:101FB00013B568460D4C012320222178073000F02C
:101FC00065FF012300280ED16A467F21D279684639
:101FD0000A4069460730CA712022217800F0F0FEDD
:101FE000431E9841C3B2180016BDC046A404002089
:101FF000F7B56B469C1D002305003048237000F0A8
:102000007BFE002801D00120FEBD68462C4E012336
:1020100020223178073000F039FF0028F3D16B46D9
:10202000DA7980235B42134368466A463178D3717C
:1020300007300123202200F0C3FE0028E3D1012352
:1020400020222000317800F021FF0028DBD170220F
:102050002378012793432A782000134308229343CF
:10206000EA7831781343042293432A7913436A7937
:10207000BB431343237020223B0000F0A1FE002845
:10208000C1D13B0010222000317800F0FFFE002873
:10209000B9D103222378200093436A78317813431F
:1020A0000C229343AA781343237010223B0000F0C4
:1020B00087FE431E9841C0B2A6E7C0461027000025
:1020C000A404002010B504000120002C06D0044B0D
:1020D0000F2219780300200000F0D8FE10BDC04682
:1020E000A404002073B5124B01AE19780500032338
:1020F000A822300000F0CAFE041E02D001242000F5
:1021000076BD7078B37800021B0418433378184307
:1021100080231B04184202D0FF231B061843FEF73E
:10212000C1FDE6218905FEF783FC2860E7E7C0468C
:10213000A404002037B56B46DD1D002304000122F6
:10214000112128002B7000F0FDFF002801D0012094
:102150003EBD02222B7813402B7002D00E4B236021
:10216000F6E701221121280000F0ECFF0028EED153
:102170000C222B781340082B0CD005D8002B07D04D
:10218000042BE5D1054BEAE70C2BE1D1044BE6E744
:10219000044BE4E7044BE2E70000FA420000FA4394
:1021A0000000FA440000754300007A4437B56B46DE
:1021B000DD1D002304000122112128002B7000F0F6
:1021C000C1FF002801D001203EBD02222B78134020
:1021D0002B7002D00E4B2360F6E70122112128005C
:1021E00000F0B0FF0028EED10C222B781340082B12
:1021F0000CD005D8002B07D0042BE5D1054BEAE71E
:102200000C2BE1D1044BE6E7044BE4E7044BE2E797
:1022100000008C4000008C4100008C4200000C410A
:1022200000000C4213B500236A46D3716B460400CC
:1022300001221121D81D00F085FF00282CD16B460A
:102240000F22DB799343402B20D00BD8202B1BD0BF
:1022500004D8002B13D0102B14D016BD302BFCD17A
:102260000E4B0DE0702B15D005D8502B10D0602BE5
:10227000F3D10B4B04E0802BEFD10A4B00E000239D
:102280002360EAE7084BFBE7084BF9E7084BF7E761
:10229000084BF5E7084BF3E70120DEE7000050426A
:1022A0000000D0430080CF44000050410000D041E6
:1022B0000000D042000050430040504413B50023BA
:1022C0006A46D3716B46040001221021D81D00F02C
:1022D00039FF002817D16B460C22DB791340082BFD
:1022E0000DD004D8002B06D0042B0AD016BD0C2B21
:1022F000FCD1822300E08023DB052360F6E7812305
:10230000FAE78323F8E70120F0E7000013B5002384
:102310006A46D3716B46040001221021D81D00F0DB
:1023200011FF002816D16B460C22DB791340082BD5
:102330000CD004D8002B06D0042B09D016BD0C2BD2
:10234000FCD1054B00E0054B2360F7E7044BFBE7AE
:10235000044BF9E70120F1E723DB793E23DB793DEC
:1023600023DBF93D23DBF93E13B500236A46D37125
:102370006B46040001221021D81D00F0E3FE002866
:1023800034D16B460F22DB799343502B26D00DD8E6
:10239000202B1FD004D8002B17D0102B18D016BD1F
:1023A000302B19D0402BFAD1114B0FE0802B19D0D4
:1023B00005D8602B14D0702BF1D10E4B06E0902B7A
:1023C00012D0A02BEBD10C4B00E000232360E6E7FA
:1023D0000A4BFBE70A4BF9E70A4BF7E70A4BF5E72D
:1023E0000A4BF3E70A4BF1E70A4BEFE70120D6E788
:1023F0000000D042004050440020D0450000504131
:102400000000D04100005042000050430000D04383
:102410000080CF4400205045002337B501AC0500B3
:10242000022222212000238000F08CFE002801D00F
:1024300001203EBD6278237812029B1824210222DB
:1024400020002B8000F07EFE0028F1D162782378F6
:1024500012029B182621022220006B8000F072FEDF
:102460000028E5D16278237812029B18AB80E0E760
:102470000023F0B585B002AE050030000193FFF7F0
:10248000CBFF002803D00124200005B0F0BD01A837
:10249000FFF78CFE041EF6D1019F0023F05EFEF7CD
:1024A00001FC391CFEF7C4FAFEF7DCFB28600223AE
:1024B000F05EFEF7F7FB391CFEF7BAFAFEF7D2FB27
:1024C00068600423F05EFEF7EDFB391CFEF7B0FAFE
:1024D000FEF7C8FBA860D7E7002337B501AC0500BD
:1024E000022228212000238000F02CFE002801D0A9
:1024F00001203EBD6278237812029B182A21022215
:1025000020002B8000F01EFE0028F1D16278237895
:1025100012029B182C21022220006B8000F012FE78
:102520000028E5D16278237812029B18AB80E0E79F
:102530000023F0B585B002AE050030000193FFF72F
:10254000CBFF002803D00124200005B0F0BD01A876
:10255000FFF7DCFE041EF6D1019F0023F05EFEF7BC
:10256000A1FB391CFEF764FAFEF77CFB286002230E
:10257000F05EFEF797FB391CFEF75AFAFEF772FB86
:1025800068600423F05EFEF78DFB391CFEF750FAFD
:10259000FEF768FBA860D7E713B500236A46D3713E
:1025A0006B46040001221B21D81D00F0CBFD002842
:1025B00008D16B46DB799B0602D50123237016BD3B
:1025C0002070FCE70120FAE773B56B46DC1D0023A1
:1025D00027492370061CFDF76BFE012211210028FC
:1025E00014D0200000F0AEFD002801D0012076BDFF
:1025F000022322789A4313432370012211212000E1
:1026000000F0E4FD431E9841C0B2F0E7200000F066
:1026100099FD0028EAD1022223781121934320005A
:10262000013A237000F0D2FD051EDFD11149301CA4
:10263000FDF73EFE00280ED10F49301CFDF738FE95
:102640000435002807D10D49301CFDF731FE043553
:10265000002800D1043501221121200000F072FD74
:102660000028C3D10C232078984305432570C4E784
:102670000000FA42000075430000FA4300007A446B
:1026800073B56B4600240021DC71DE1D051CFDF7CF
:102690000FFEA04231D12449281CFDF709FE103459
:1026A00000282AD12149281CFDF702FE10340028F9
:1026B00023D11F49281CFDF7FBFD103400281CD135
:1026C0001C49281CFDF7F4FD1034002815D11A49C7
:1026D000281CFDF7EDFD103400280ED11749281CE9
:1026E000FDF7E6FD1034002807D11549281CFDF739
:1026F000DFFD1034002800D11034012211213000F8
:1027000000F020FD012200280BD10F21337830008A
:102710000B401C430231347000F058FD421E9041C2
:10272000C2B2100076BDC046000050410000D0414A
:10273000000050420000D042000050430000D0434F
:102740000040504473B56B4600248021DC71C905FC
:10275000DD1D061CFDF7ACFDA04210D18121301C0F
:10276000C905FDF7A5FD0834002808D18221301CD9
:10277000C905FDF79DFD0434002800D1083C012265
:102780001021280000F0DEFC012200280BD10C21D2
:102790002B7828008B431C4304312C7000F016FD6D
:1027A000421E9041C2B2100076BD000073B56B4668
:1027B00000240021DC71DE1D051CFDF779FDA0421F
:1027C0003FD12B49281CFDF773FD1034002838D168
:1027D0002849281CFDF76CFD1034002831D126490A
:1027E000281CFDF765FD103400282AD12349281C38
:1027F000FDF75EFD1034002823D12149281CFDF788
:1028000057FD103400281CD11E49281CFDF750FD2F
:102810001034002815D11C49281CFDF749FD10343F
:1028200000280ED11949281CFDF742FD103400285C
:1028300007D11749281CFDF73BFD1034002800D1B3
:10284000103401221021300000F07CFC012200280D
:102850000BD10F21337830000B401C4389183470A2
:1028600000F0B4FC421E9041C2B2100076BDC046DA
:10287000000050410000D041000050420000D04212
:10288000000050430000D043004050440080CF443B
:102890000020504513B56B46DC1D002301225E214C
:1028A0002000237000F04EFC002801D0012016BD4E
:1028B000102223785E21934320000F3A237000F00A
:1028C00085FC0028F2D101225D21200000F03AFCB5
:1028D0000028EBD1207001225D21200000F076FC61
:1028E000431E9841C0B2E2E713B56B46DC1D0023DE
:1028F000012210212000237000F024FC002801D0C8
:10290000012016BD0322237810211A4060232000E5
:1029100013430122237000F059FC0028F0D101225A
:102920005C21200000F00EFC0028E9D1207001227B
:102930005C21200000F04AFC0028E1D101225D2149
:10294000200000F0FFFB0028DAD1332301225D21B3
:102950002000237000F03AFC0028D1D101225E2132
:10296000200000F0EFFB0028CAD1102322785E215E
:102970009A43134320000122237000F027FC431EDA
:102980009841C0B2BDE70000F0B58BB002ABDD1DD1
:102990000023060092482B7000F058FB002803D05B
:1029A000012528000BB0F0BD01220F21280000F006
:1029B000C9FB0028F4D12B78692BF5D1643B0122A7
:1029C000122128002B7000F001FC0028E8D1012220
:1029D0001221280000F0B6FB0028E1D12F78042F47
:1029E000F5D107AC207001221221200000F0AAFBD3
:1029F0000028D5D123780122BB431F431221200098
:102A0000277000F0E3FB0028CAD101220A21200030
:102A100000F098FB0028C3D17F2223780A2193433A
:102A200020007E3A237000F0D1FB0028B8D1307826
:102A3000FEF77EF9FFF724FE0028B1D17078FEF78B
:102A400077F9FFF7C1FD0028AAD1F378B778009392
:102A5000337920700193002F00D00827009B002BB2
:102A600001D010230093019B002B01D02023019360
:102A700001221921200000F065FB002800D08FE71B
:102A800008222378192193431F4310239F43009B5F
:102A900020003B431F0020239F43019B073A3B43F9
:102AA000237000F093FB002800D079E77079FEF7DF
:102AB0003FF9FFF77BFE002800D071E7B079FEF701
:102AC00037F9FFF73FFE002800D069E7337AF7793E
:102AD0000093767A2070002F00D00827009B002BEF
:102AE00001D010230093002E00D0202601221821AF
:102AF000200000F027FB002800D051E708222378AF
:102B0000182193431F4310239F43009B20003B4306
:102B10001F0020239F433E43073A267000F056FBD8
:102B2000002800D03CE701220D21280000F00AFB1C
:102B3000002800D034E703262B78012233430D21EF
:102B400028002B7000F042FB002800D028E701226B
:102B50001A21280000F0F6FA002800D020E7802390
:102B60002A785B421343280001221A212B7000F0BF
:102B70002DFB051E00D013E701210800FFF750F8D8
:102B800000F0B4F8174F01388000C35905A8059329
:102B900002AB1D829D74FEF72DFE3200124904A87F
:102BA00001F0A0F904A8FFF76DF900F09FF80138D3
:102BB0008000C359200023606560A560FEF7A2FE77
:102BC00000F094F801388000C059FEF7C7FE00F00D
:102BD0008DF8013880000121C059FEF7B4FEE0E60F
:102BE00000127A00082C0510082B0510030010B500
:102BF0000120002B04D002000F21180000F0A2FADF
:102C000010BD000070B5012186B006000920FFF755
:102C100007F800F06BF81B4B01388000C358002503
:102C2000019300F063F8184B0138800001ACC358E1
:102C300020002371A5716571FEF7DCFD00F056F8E8
:102C4000124B01388000C358019300F04FF8104A2E
:102C5000431E9B009B5820002371FEF7CBFD0D4BBC
:102C60006A46049303230124938203A89475039670
:102C7000FFF746F82800FFF7F9F82000FFF732F8D1
:102C800006B070BD282C0510242C0510202C051032
:102C90001C2C05100303000010B58020FFF7D8F8A6
:102CA00043425841C0B210BD10B50820FFF7D0F81C
:102CB000013843425841C0B210BD10B501F012F9BD
:102CC00010BD10B501F00EF910BD10B50A000021BD
:102CD00001F024F910BD10B5FFF7F7FF10BD00009B
:102CE0000122014B1A70704714030020014B187821
:102CF000C0B2704714030020F0B587B00700FFF79B
:102D0000F5FF264E01388000254B825901219A4259
:102D100042D12448FEF784FFFFF7E8FF224B013839
:102D20008000C35800250193FFF7E0FF1F4B0138D7
:102D3000800001ACC35820002371A5716571FEF7B6
:102D400059FDFFF7D3FF1A4B01388000C358019398
:102D5000FFF7CCFF174B01388000C35820002371C8
:102D600003ACFEF747FD2000FEF768FE0123039742
:102D70002371FFF7BBFF0138800021003058FEF7B8
:102D8000F9FDFFF7B3FF0138800030580A49FEF71C
:102D900082FE280007B0F0BD0848BBE7F40400201D
:102DA0000000A04001040000F02B0510EC2B0510E2
:102DB000F82B0510F42B05107F809F730102000093
:102DC000F0B51D00002387B003AE338080235B0580
:102DD00004938023DB0133816B1C17000190718009
:102DE0007381FFF783FF274C013880000059FEF7FD
:102DF00041FEFFF77BFF013880002058FEF73FFEC1
:102E00000128F6D0FFF772FF01388000310020580A
:102E1000FEF71CFEFFF76AFF0138800039002058DA
:102E2000FEF723FE019E7519AE421FD180252D03AA
:102E3000FFF75CFF013880002058FEF72EFE0328C4
:102E40001ED0FFF753FF0138800029002058FEF7FD
:102E50001CFE0028ECD0FFF749FF01388000205805
:102E60000949FEF718FE002007B0F0BDFFF73EFF4E
:102E70000138800031782058FEF7F7FD0136D3E79E
:102E80000120F1E7F404002000000810F0B51F0055
:102E9000002387B003AD2B8080235B050493802340
:102EA0005B0206000192009169800593FFF71EFF07
:102EB0003E4C013880000059FEF7DCFDFFF716FF9D
:102EC000013880002058FEF7DAFD0128F6D0FFF720
:102ED0000DFF0138800029002058FEF7B7FDFFF7ED
:102EE00005FF0138800001992058FEF7BEFDFFF76D
:102EF000FDFE013880002058FEF7CFFD032802D1E7
:102F0000012007B0F0BDFFF7F1FE802101388000FD
:102F100020584905FEF7B9FD0028E8D0FFF7E6FE86
:102F200080210138800049052058FEF7B4FD0123B7
:102F30002B80009B6F816B8080235B050493802333
:102F4000DB012B81FFF7D2FE0138800029002058D9
:102F50008025FEF77BFD2D03FFF7C8FE01388000BA
:102F60002058FEF79AFD0328CAD0FFF7BFFE0138AC
:102F7000800029002058FEF788FD0028ECD0FFF7DC
:102F8000B5FE013880000A492058FEF784FDF51986
:102F9000AE4201D10020B4E7FFF7A8FE013880005F
:102FA0002058FEF764FD30700136F1E7F40400208C
:102FB0000000081010B50E4C012808D002280ED0D1
:102FC000FFF794FE431E0C205843205806E0FFF7FD
:102FD0008DFE431E0C2058432018406810BDFFF79B
:102FE00085FE431E0C20584320188068F6E7C04633
:102FF0002C2C051010B5FFF7DDFF0121FEF774FC46
:1030000010BD10B5FFF7D6FF0021FEF76DFC10BD17
:1030100013B5012104000800FEF702FE2000FFF7AF
:10302000C9FF83236A465B009380063BFF3B009009
:1030300068469371FEF7DEFB2000FFF7E2FF13BD49
:1030400010B5FFF7B7FFFEF757FC10BDF0B587B01E
:10305000012104AC01901120FEF7E2FD2000FEF7F3
:1030600036FCFFF743FE304B01388000C358012681
:103070000493FFF73BFE00252C4B01388000C3581A
:1030800020002371A6716571FEF7B4FBFFF72EFED9
:10309000274B01388000C3580493FFF727FE254BC8
:1030A00001388000C35820002371FEF7A3FBFFF70F
:1030B0001DFE214B01388000C3580493FFF716FE14
:1030C0001E4B01388000C35820002371FEF792FB8D
:1030D000FFF70CFE1A4F01388000C35920000493FB
:1030E00006232371FEF786FBFFF700FE0138800000
:1030F000C059FEF7F1FB02A8FEF72EFDE023DB002E
:103100000293019B02A80393FEF7FCFCFF20FEF74D
:1031100081FDFEF759FDFEF74BFD3000FEF724FD63
:10312000280007B0F0BDC046102C05100C2C05106F
:10313000042C0510002C0510182C0510142C05105B
:10314000FC2B0510F8B5050000200F001600FEF757
:1031500053FDFFF7CBFD1C4C013880000059FEF7F2
:10316000BFFB0120FEF71AFD0028FAD0802038436B
:10317000FEF708FD0420FEF711FD0028FAD0FEF747
:1031800007FDAE19B5420DD11020FEF707FD01284D
:10319000FAD0FFF7ABFD013880002058FEF79CFB0A
:1031A0000020F8BD0120FEF7F9FC0028FAD0FF202E
:1031B000FEF7E8FC0420FEF7F1FC0028FAD0FEF749
:1031C000E7FC28700135DDE7FC2B0510F8B505009C
:1031D00001200F001600FEF70FFDFFF787FD0F4CD3
:1031E000013880000059FEF77BFB3800FEF7CAFC6F
:1031F000AE19B5420DD11020FEF7D0FC0128FAD04F
:10320000FFF774FD013880002058FEF765FB0020B1
:10321000F8BD2878FEF7B6FC0135EAE7FC2B05106F
:1032200070477047704770477047704770477047E6
:10323000704770477047704770477047002210B55D
:10324000104B995CC8B2002917D11C2A14D821242C
:1032500002319954511C5C54911C193C5C54D11C92
:1032600058549B18802290219BB252021343C905E7
:10327000CB60CB681342FCD110BD995C0131521870
:10328000D2B2DEE715030020002330B50E4AD15C30
:10329000CCB2002913D11C2B08D835250231D154CA
:1032A000591C5554991C03335054D4540222074BD3
:1032B0001A7033325A7000229870DA7030BDD15CC7
:1032C00001315B18DBB2E2E7150300201C0000208F
:1032D00080220E4B520230B59CB2110014430028DC
:1032E00006D09023DB05DC60DA680A42FCD130BDF1
:1032F000042598789978C0B2A94399709021C9059E
:10330000CC60CC681442FCD19870F0E71C0000201F
:103310000123274A30B5117A03240B43137200228C
:10332000244B85B01A60FEF787FC6B4658805A889C
:103330000233002A03D1013CE4B2002CF3D11A88F5
:103340001F2A32D91B885B0510D401A8FDF752FD56
:103350006B465A799B7912011A43174B1B681B075E
:1033600011D4112A02DD0120FFF7B2FF0122134B15
:103370001A70FCF7CEFEBFF34F8F114B114ADA6083
:10338000BFF34F8FFEE790250F4CED0528692368AA
:10339000283B1B1A1B02002BE8DD112A02DD01204D
:1033A000FFF796FF23686B60E0E7012005B030BDB2
:1033B0000000204014000020C00000200C0000206D
:1033C00000ED00E00400FA051800002010B5FFF73A
:1033D0009FFF012813D1124A124B13498B4214D379
:1033E000124A134B13498B4212D30021124B134A3A
:1033F000934210D30021124B124A93420DD3124B29
:1034000083F3088800F082F910BD01CA01C3E5E723
:1034100001CA01C3E7E702C3EAE702C3EDE7C0461A
:10342000142E05101804002000050020E82D0510BA
:103430000800002034000020C0000020CC02002042
:10344000CC020020180400200060002070B58AB073
:1034500003AC05000E0019222000434900F042FD94
:103460006846FDF7C7FC002D60D044233F4AA37394
:10347000117A433B0B4313724C23E3722C3B2372B0
:1034800092336374573B2375394B3A4A1B68190CC6
:10349000914208D17020E17D1B018143E175E17DFE
:1034A00003400B43E375344B1B68190C914208D160
:1034B000302061791B0181436171617903400B43C5
:1034C00063712E4B1B68190C914207D10321E27DD9
:1034D0000B408A43E275E27D1343E3750422E37AED
:1034E00069469343E3726B465B78897893400B435C
:1034F000112B06DDE37D1A43E275E07DC0B2FFF7D4
:10350000C3FE802390222404240C5B021C43D205BA
:10351000D460D1681942FCD16B466A465B789278D8
:103520001B011343112B01DDFFF788FE144B1A8B8F
:10353000002AFCD001221A8316329A8100221A61D5
:10354000964207D090231021DB0518691A69424082
:103550000A42FBD0002D02D015220A4B1A700A4BEA
:103560000A4A1A600AB070BD0B2B051000002040FB
:10357000E807001055AA0000E4070010B00700108B
:10358000000010480000C04014000020CCBCECFC3F
:103590000822F8B5C027C0213B4B3C4D9A803C4ADD
:1035A0003F04136A09062B403B431362136AFF274B
:1035B0001B021B0A0B431362C02292009446C020D8
:1035C000344B64469A58344EBA430243C0201A51D1
:1035D0001A590002324002431A51C12292009C58EB
:1035E000BC433F3F3C439C509C58C027344004435D
:1035F0009C509C583F042C409C509C582402240A08
:103600000C439C500832944664469A583240024318
:103610001A511A592A403A431A511A591202120AD7
:103620000A431A51C4229200944664469A58324082
:1036300002431A511A592A403A431A511A5912028E
:10364000120A0A431A51C52292009C582700FF24EF
:10365000A7433F3C2743C0249F509F5824043E402B
:1036600030439850985805402C439C50985800027D
:10367000000A0143995001210800FFF7E7FE074BBC
:10368000074A1A6262B6F8BD00001040FFFF00FF53
:1036900000ED00E000E100E0FF00FFFF00009040CF
:1036A00066000E007047FEE7704710B5FDF79AFB05
:1036B00010BD000013B5FFF719FB0E4C0138800058
:1036C0000059FEF74FF9012812D1FFF70FFB01381F
:1036D00080000059FEF742F96B46DC1D064B2000C6
:1036E0001B689B6898472378012B01D1034A13700C
:1036F00013BDC046082C05104403002062030020BF
:10370000704710B504F088FB10BD000010B5FFF73E
:103710003FFFFFF7E5FAE1204002FFF773FA114897
:1037200000F094FD041E00D0FEE7FFF771FC0220BC
:10373000FFF76EFC2000FFF75DFC0220FFF761FC45
:1037400000F0CCFA002803D00220FFF753FCFEE77C
:1037500000F03AFD00F04EFB002203201100FDF7BF
:103760009BFBF5E7382C0510BFF34F8F024B034A44
:10377000DA60BFF34F8FFEE700ED00E00400FA05CA
:1037800010B5032806D8537810781B02132118436C
:1037900000F07DFC10BD000010B5084B1B78002B1D
:1037A00008D1FFF779FA002804D1FFF77DFA032347
:1037B000002800D00023180010BDC046620300207E
:1037C00010B5024B1B689B68984710BD4003002052
:1037D00013B56B46DC1D054B20001B689B689847A2
:1037E0002378012B01D1024A137013BD440300203A
:1037F00062030020F0B52C4B8BB007932B4B2C4C65
:1038000008932C4F2C4B1022200006A909930697F1
:10381000FDF733FB294A2A4B21001B780220009236
:10382000012200F092FC041E3BD11026254B264DB0
:103830000793264B10220893254B06A928000993CD
:103840000697FDF71AFB1D4B2A001888214B04949C
:10385000059302940194012302210396009600F03F
:103860002DFC041E1DD11C4B320007931B4B06A9D7
:1038700008931B4B280009930697FDF7FEFA0F4BA0
:103880002A001888174B02210593042302930E3354
:1038900000930494039601940C3B00F00FFC002865
:1038A00000D047200BB0F0BD0200B49AE1113ACF2E
:1038B000060400201BC5D5A5806E3602F203002049
:1038C000F80400200200FC8FE0030020E1114ACF41
:1038D000A0783EE2D8030020020036ACE1114BCFC5
:1038E000801B0A34F403002010B51724012386B08E
:1038F000094A0A490A486C442370128809880088DA
:103900000394002402930194009300F043FCA0422E
:1039100000D0472006B010BDD8030020F2030020DD
:103920006003002010B5426886B004AB52421A70A2
:1039300012125A7002880D495A8082680C4852420D
:103940001A7112125A710B4A0988128800880024D1
:1039500003930623019402930093053B00F01AFCA5
:10396000A04200D0472006B010BDC046F2030020A0
:1039700060030020F4030020F0B5564B93B0564C82
:103980000F93564E564B574D102220000EA91193FF
:103990000E961095FDF771FA534A544B21005B784F
:1039A00002200092012200F0D0FB041E00D08DE026
:1039B0004F4B0E960F934F4B4F4E11930EAB19007A
:1039C000102230001095FDF758FA474B0225188851
:1039D00004221023494F04940393029201942B0074
:1039E000320029000597009500F068FB041E6DD198
:1039F00068466A4684863620414B12180C936B4603
:103A00001470404A40489A850BAB19002A00FDF714
:103A100034FA3988344F072238882E276F44102310
:103A2000089701270794059403940CAC069302941D
:103A300001920092344B3A00049700F05EFB041EA2
:103A400044D1324B25490F93314B10221093314B07
:103A50000E9130000EA91193FDF70FFA22491023A1
:103A600008882D490494059104210393029101943F
:103A70003200290000950D3B00F020FB041E25D1EB
:103A80006E46B08636201F49244B30182A00047039
:103A9000B1851D480BA90C93FDF7EFF91023072200
:103AA0001D4911482C35098800886D4406930CABDC
:103AB000029301920092144B3A00089507940594E2
:103AC0000497039400F019FB002800D0472013B09E
:103AD000F0BDC0460200D082060400201BC5D5A55B
:103AE000401A8242E21177E4DA030020F804002051
:103AF0000200E3A920552EA3E0030020F0030020DC
:103B00000EFF2F2704290000F603002002000B847B
:103B1000E2118BE480C420CDDE0300200FFB802760
:103B2000162310B586B06B4418800A4A0A490B4820
:103B300012880988008800240393022301940293C9
:103B40000093013B00F026FBA04200D0472006B0C6
:103B500010BDC046F0030020DA03002060030020FF
:103B600010B50B4B86B01A880A4B059019880A4B82
:103B70000024188805AB0393032301940293009358
:103B8000023B00F007FBA04200D0472006B010BD6A
:103B9000DE030020DA030020600300201FB5224B63
:103BA0001B880133984214D101A8FFF709FE0028B1
:103BB00002D101A8FFF7B6FE1C4B1888002806D0DA
:103BC00000F0DEFA002802D00220FFF713FA05B059
:103BD00000BD174B1B880133984210D1154B01A82B
:103BE0001B689B6A98470028E6D113490198FCF7A7
:103BF0001FFFFDF737F800B2FFF792FFDCE70F4B2E
:103C00001B8801339842D7D10A4B01A81B685B6A15
:103C100098470028D0D10A490198FCF709FFFDF721
:103C200021F8FFF79DFFC7E7F403002060030020A1
:103C3000F0030020FC04002000002041DE030020EF
:103C40000000C842F7B50023134E6A4613490D25FC
:103C5000012431607D211248124FD371124A8370C2
:103C6000C370037102333A6005704571417083710E
:103C7000C47113680472447298476B46290022008D
:103C8000D81DFFF7A3FA3B6808489B68984733683C
:103C90001B689847F7BDC04644030020E804002095
:103CA0003503002040030020A8040020500300201A
:103CB00010230822074810B503700C3B0371837072
:103CC000054BC2701B68073A427142701B689847E7
:103CD00010BDC04648030020FC040020F0B50724B6
:103CE0008DB006222C4908A80AAD00F0FBF822008E
:103CF0002A49280000F0F6F80621002008AA00F062
:103D00005EFA002845D10421013000F054FA00F099
:103D10003DFA00283DD11A261E236E446B4407AF9E
:103D200001000193220033000097013000F02CF9CC
:103D300000282ED13A88318803000395029401901F
:103D4000009400F027FA002823D1154B012103939A
:103D500010230200049002900193009403000800D5
:103D600000F02AF9002814D1FFF76CFFFFF7A0FF3D
:103D7000FFF740FD00280CD1FFF7FEFD002808D119
:103D8000C821013003F0E7FAC0B2002801D1054B89
:103D900018700DB0F0BDC046242B05106D2C051019
:103DA00040E201006303002030B508248BB008AD69
:103DB00022000F49280000F095F80021080003F0C8
:103DC0004BFA0020F022C8210123069005900490B0
:103DD00003900295019400909200890000F036F95A
:103DE000002802D00220FFF705F90BB030BDC04615
:103DF0006C2C05101FB5184C2378002B03D0FFF74F
:103E0000D3FF00232370154C2378002B1AD00023F6
:103E1000C8210120237003F09EFA002801D001235D
:103E200023700F4B1B68002B0CD00020FFF708F904
:103E300001A8FFF7C5FC002802D101A8FFF772FD19
:103E4000FFF7C6FC074B1A78012A03D100221A702B
:103E5000FFF74AFD1FBDC046FA040020630300209F
:103E60005C030020620300200122024B1A60024B17
:103E7000198070475C0300206003002000200122AD
:103E8000044B10B51860044B1A70044B1880FFF7F0
:103E9000B1F810BD5C030020FA040020600300208C
:103EA00010B50800FFF77AFE10BD0000012801D10F
:103EB000014B18707047C04663030020704770477D
:103EC00010B500F018F810BD30B500240139A24239
:103ED00001D1002005E0035D01340D5DAB42F6D059
:103EE000581B30BD002310B59A4200D110BDCC5CE8
:103EF000C4540133F8E710B5884202D98B189842B0
:103F000003D3002307E08B5C8354013AFBD210BD3E
:103F1000CC5CC45401339A42FAD1F8E7030082180A
:103F2000934200D1704719700133F9E7F0B50546A7
:103F300000200F46079E059C174309D0202905D372
:103F40000127BF03BA4201D8914201D94220F0BDF6
:103F5000194621430AD09C42F8D309498C4203D028
:103F60000849A41F8C42F1D2062BEFD3002D03D0B9
:103F7000022D01D0032DE9D1032EE7D8F0BD0000BA
:103F8000FFFF00007B0C00007CB5069D079C00280D
:103F900005D0860705D1460703D4060701D4422081
:103FA0007CBD002903D0012901D00229F7D1009559
:103FB000019400F03FFB7CBDFFB583B003980C9DDE
:103FC0001E4614460F46002804D0012802D0422085
:103FD00007B0F0BD002F01D0012FF8D1E81F0A284B
:103FE000F5D20D981028F2D8A842F0D30E980028E8
:103FF00001D00128EBD114490F988842E7D81098D6
:10400000002801D00128E2D10BF086FC012804D061
:104010002046304305D01120DAE7022CD7D8012EF4
:10402000D5D868460399017047708472C67285704E
:104030000D99C1700E9901720F9801906846109900
:1040400041720BF03BF8C3E73F420F00FFB587B06A
:10405000109D159E169C01930295009407A807C811
:104060001F463346FFF762FF00280ED113981499BC
:1040700003AA069443C211981299019000950291E7
:1040800007A807C83B4600F047FC0BB0F0BD10B5D1
:1040900007F0E8FA10BD70B51C4613460D46012C1A
:1040A00003D0022C03D0422070BD022200E0102277
:1040B0001946FCF7E2FE2C70002070BDF0B587B009
:1040C0001C460B46054600A9023101A80C9F0D9E17
:1040D000FFF7E1FF00280ED16846058084828775CE
:1040E000C6750E9901760F994176109981766946C9
:1040F000119801F081F907B0F0BDF0B58BB09C4686
:104100000C4605461346624601A806A9139F179E52
:10411000FFF7C1FF002816D1129807906846058066
:10412000448008A8077014994170159981701699F8
:10413000C17006716846119981821099C1826946E1
:10414000189801F0A9F80BB0F0BD70B586B0144610
:104150001D460A4603466946881C0A9EFFF79BFFD8
:10416000002804D1012C04D0022C02D0422006B039
:1041700070BD23462A466946304601F087FBF6E7C4
:1041800010B50022114601F031FC10BD10B501F050
:1041900079FE10BDF0B585B084460AA8F0C868461F
:1041A0008581C68103A8019002970094604602F0C1
:1041B00053F905B0F0BD10B502F09CFE10BD10B56E
:1041C00002F0BAFE10BD000010B503F069F91D4CF5
:1041D0004121206849014118097F00290DD1A030F3
:1041E0000079C00705D100F077FB01F0E3FC09F08E
:1041F00053FC02F0D3FF0BF0A9FB00F001F920689B
:10420000014640310A78C9798A4319D13E21095CB7
:10421000002915D10C490A88120711D50922D206A6
:104220001269497A836AC90059181123DB01C01841
:10423000806A801A00020012814201DA08F0F4FC60
:1042400010BD000060040020C000002010B5837F76
:104250000122002492024168082B03D94224914292
:1042600002D310E0914201D242240CE001463422F4
:104270000648FCF702FE00F083F8002801DA482423
:1042800001E000F02DF9204610BD0000CC02002016
:104290003EB5174D15482968827F0846A0310A733C
:1042A00000246030047644768476E122C27680224F
:1042B000027702224277302008704C7002AA01A9CE
:1042C0006846FCF7C9FD68460078A22201016846ED
:1042D000007A891C0002014368460079000301430B
:1042E00028681152A03004713EBD0000CC020020AD
:1042F0006004002070B503F0B9F807F0D7FF06F0AE
:10430000D3FE0CF03DF903F095FA1A4C1A492068D7
:104310001A4D4018811013202A68C0011018C1627C
:10432000616889080163A168890841630AF0CCFBD0
:1043300029681F208001228B08188280628B0F233E
:10434000C280DB01A28BCB18DA87628C0280224606
:104350002032127882703D225201002089180873A1
:1043600000F066FA02F02AFF02F0B0FE0BF074FBD8
:1043700070BD0000CC0200200000FCEF60040020B3
:1043800070B50025ED4302F052FF01282ED0002326
:1043900018490322888BFF24401E10438A7F59341A
:1043A00062438218088B282460431218488B3024FB
:1043B000604312180846203040782C2460431018BF
:1043C0000D4A181884184869A0420DD10B48844240
:1043D0000AD90D6902F02BFFC1B2284605F0D2FBC5
:1043E00005F00CFD401B251A284670BDFF23B53390
:1043F000CEE70000CC02002089190000B8090000B7
:10440000F8B52C4F3C68206E5C34401C002814D05A
:10441000002529480023C07B00283ED00926F60647
:104420002648002D1CD000210A460B464169521C2B
:10443000994204D1002902D004E00125E9E7204B8C
:104440009A42F2D32160006960603069A16800027D
:10445000090E000A09060143A16000F033F81DE0CF
:104460003169A2680902090A150E08D0018BC90733
:1044700012D04169216000696060E37210E0881A1F
:1044800000027D2300121B03984205DD100E00067A
:104490000843A06000F016F8F8BD6360002DFBD063
:1044A00003CC08F0EBFAFA2008F0D8FA39688862F1
:1044B000F8BD000060040020EC020020000010485D
:1044C00088130000044900200861044801210068A5
:1044D0006030C17170470000000010486004002087
:1044E000F8B5062632484025056032480027078087
:1044F000A9050920C00641602F4A9160016801604A
:104500002E48032104694269601E08433946401C55
:10451000FCF7B7FC02F08BFEC1B2204605F032FB7F
:1045200005F06CFC05F076FC04F04CFC24491720E7
:104530008881244C2068421901465770FA2088620D
:104540002820107002F071FE012805D12068102289
:1045500040300178114301700BF0DEF9012805D1DC
:1045600020688022403001781143017020680146A4
:1045700040300278324302700020C0430866FDF7E5
:1045800090FAFFF785FEFFF7B5FE20680121203085
:10459000017707214177012002F0ACFC04F0A8FC70
:1045A000FFF72EFF02488038056002210160F8BD48
:1045B00080E100E0C000002040000048CC02002064
:1045C000000010486004002038B5184A14682246DC
:1045D000BA32AE34A378DD0701D001290AD05B07D7
:1045E0000CD501290AD0217949070BD5E17A002998
:1045F00005D007E0E07880210843E07038BD012154
:10460000E172508020794106090FF7D078210840E7
:1046100069460870002048706A460221422000F076
:10462000C1FA207987210840207138BD600400203C
:1046300070470000FFB50C4678A103C995B0019101
:104640000090002108A801730321C9026846418631
:10465000012108A8734E017435681746AE350EF077
:1046600019F8002808D170493068401807F006F89A
:10467000A878002802D0462019B0F0BD0BA81599E3
:1046800000F066F90028F7D1072010A90871012C65
:1046900005D0022C0AD0002C0ED04220ECE708A84E
:1046A000017B1020014308A8017305E011A90BA8A4
:1046B00000F05DF90028DFD110A8027901230CA9D0
:1046C000284601F0E3F800287ED1022229461898F6
:1046D000FCF7D3FB298868468181152149020182B4
:1046E0000784012686734E2108A881700024C470B7
:1046F000067107214171867103A902A800F07CFEB2
:10470000002861D1022202A91E98FCF7B6FB082FEF
:1047100002D26846478502E0082069464885694616
:104720000C850B4628880AAA098901F061FE002839
:104730006DD13E49684601820227078408A884712A
:1047400003A902A800F058FE002860D1022202A9A5
:104750001F98FCF792FB68460470694644704F85C9
:104760000B4628880AAA098901F042FE00284ED18A
:1047700008A8007BC00723D02C496846C91C0182C9
:104780000821018408A88770047103A902A800F019
:1047900033FE00283BD1FF216846C1718171C17091
:1047A0008170417001704471047169460820488528
:1047B0000B4628880AAA098901F01AFE002826D18A
:1047C00008A8007B800600E021E022D52988684601
:1047D00081811649A53101820684867308A88770F5
:1047E000C470047107214171847103A902A800F00B
:1047F00003FE00280BD169460E700C854E850B46D2
:1048000028880AAA098901F0F3FD002801D0472071
:1048100032E708A8007BA87000202DE7626C756560
:104820006E7267216004002033070000012A000037
:10483000034800210068AE30C170817070470000ED
:104840006004002038B50246174801240068AE30E5
:10485000022A1FD0052A03D0072A07D00B2A20D10D
:10486000084609794088FFF7AFFE1AE00079002476
:10487000020600D50124820703D1C20601D48006B6
:104880000FD5084600216A461170694600F072F89B
:10489000044606E08178490703D50179FB221140DF
:1048A0000171204638BD00006004002010B50948A1
:1048B0000468AE34E07880070BD5002007F08CFB4D
:1048C000022000F047F9E07801210843FD2108406B
:1048D000E07010BD600400201FB50E480468AE34BF
:1048E000E078010612D5A178C9070CD0800708D559
:1048F000042069460873684602F0ACFE022000F00E
:1049000029F90020E0704006400EE07000F02EF81B
:104910001FBD000060040020F0B58DB00C4616A944
:10492000E0C90021089109910A910B911599049110
:1049300005A9E0C112A962C900930191134601467D
:10494000039602952246012000F04AF80DB0F0BD12
:104950000A07920F01D0422070478A07FBD00278E5
:104960008907890F0A430270002070477047422070
:104970007047000030B5194B047A1B68C268AE332B
:104980001B799D06AD0F04D10078042801D00020CA
:104990000EE0012030BD155C002D0BD0401C80B214
:1049A000155C012D08D01518203DED7F281880B228
:1049B000A042F0D3087830BD401CDD07012480B24E
:1049C000002D02D0105CC00703E09B07F2D5105CFD
:1049D00080070028EED00C70ECE700006004002097
:1049E000FFB595B00E46054620210CA8FEF773F9D9
:1049F00000200490564800270468681EAE3404283E
:104A000002D8A078C0070BD0062D02D0002D0AD006
:104A100002E0A078800703D5E0784006800E0AD037
:104A2000462019B0F0BDA0788007F9D0E0784006A4
:104A3000800EF5D00FE0002D0DD0012D20D0022DDD
:104A400028D0062D33D0032D33D0042D37D0002E9F
:104A50003BD04220E5E7002007F0BEFA0028E0D175
:104A6000E078800708D5042069460873684602F09C
:104A7000F1FD022000F06EF80120E0700020D0E788
:104A8000012EE6D0042EE4D01F980028E1D106279D
:104A9000042008E0012EDCD0042EDAD01F98002874
:104AA000D7D105270220E0700120049010E04020BB
:104AB0000DE0022E01D0032ECBD1082007E0012EFD
:104AC00001D0042EC5D1102001E004272020E07081
:104AD00000230BAA19461E9806F02AFC030002D0F8
:104AE00000F0E0F832E01022002107A8FCF7C9F935
:104AF00007A86C46279B269A1F990FC42B46304661
:104B0000189A179900F088F80300E9D108A8017BEA
:104B1000C170259803AC049B289A29990FC422AB35
:104B200007CB02920091019039460CA8209B219A54
:104B300000F0C2F80300D3D107A807F04BFD030033
:104B4000CED1012007F048FA0300C9D1184668E722
:104B50006004002010B50446C1061148006803D562
:104B60001522BF210C4006E0392149014118897BFB
:104B7000C90710D012222107890E08180121C90285
:104B80004018C06C002321460AF0B0FF010004D099
:104B900020460AF097FF002010BD072010BD00003E
:104BA00060040020F8B5891ECDB20646A81C03217A
:104BB0000843401C8308174817460068F10603D5D0
:104BC0001C22BF210E4008E0392149014118897B90
:104BD000090601D40020F8BD19223107890E0818F2
:104BE0000121C9024018C06C31460AF07FFF040061
:104BF0000ED03978217179786171A5712A46B91C76
:104C0000E01DFCF73AF9214630460AF05BFFE1E788
:104C10000720F8BD60040020F8B5204B204D1B682C
:104C200001265B19069CB6030093002814D00428C3
:104C300012D0022813D0032811D006252B460128B4
:104C400010D00F4617430DD0914203D8202901D32D
:104C5000B2420AD94220F8BD30256023EFE7A025F3
:104C6000F023ECE72580638001E0218062802071E1
:104C70000798A071089820720998002805D001466D
:104C8000204606220930FCF7F8F8072060710098EA
:104C90002030807B60710020F8BD0000600400209F
:104CA00058080000034881220068A030417C114070
:104CB0004174704760040020F8B505463E481E4622
:104CC0000068079F0024AE301346002905D0022259
:104CD0002A7001226A70A9700324002E10D08078F7
:104CE0008006800F0CD13019401C1F2854D82E5537
:104CF000641C281932461946FCF7BFF8A019C4B243
:104D0000002F0DD03819401C1F2845D82F55641C82
:104D1000E4B228193A460699FCF7AFF8E019C4B294
:104D20006846008C00281BD06846808C002817D06D
:104D3000601D1F2830D805202855641CE0B21221C0
:104D40002954401CC4B228190646022208A9FCF7BF
:104D500094F8B01C022209A9FCF78FF8241DE4B2D4
:104D60000C98002812D0E01C1F2815D802202855C6
:104D7000641CE0B20A212954401CC4B2684607F002
:104D800033FE684600782855641CE4B20B9800286E
:104D90000CD000191F2801D94220F8BD28190B9A00
:104DA0000A99FCF76AF80B982018C4B221462846E5
:104DB00007F06CFBF8BD00006004002010B50D4941
:104DC00000050B68092109025918CA6E0021000D5F
:104DD000A0331B7B0AE04C01145B2405240D8442A4
:104DE00002D14801801810BD491CC9B28B42F2D8CB
:104DF000002010BD60040020F8B5069C1F46154633
:104E00000646002C13D0A06802220D30FCF735F8BE
:104E1000E81E82B23B460721204606F0D3F9E58022
:104E2000A068012E05D01D2101730020F8BD472088
:104E3000F8BD1B21F8E70000F1B5FFB001248BB0ED
:104E4000600205900027CC4807970168CB48C94D00
:104E5000081803908A980AAA0005000D05A908F011
:104E60007FFB0690002872D104260AA805994218F3
:104E7000203AD27F0B2A23D00026002004900AA8D3
:104E80008119022201A80291FBF7F7FF6846818889
:104E900009AB08AA039801F0A7FC012817D0022843
:104EA0007ED068468088854200D30546844200D97A
:104EB0002046044602988078012872D013363CE1DF
:104EC000491E761E36040591360CCFD1D5E70898D9
:104ED0000090002F66D10099022228310298FBF73A
:104EE000D4FF00281ED100982030017B02988078E2
:104EF000814217D1012808D1009802990222083076
:104F0000C91CFBF7C2FF002815D002988078022840
:104F100008D10098029910220830C91CFBF7B5FF90
:104F2000002808D00098008DA84200D80546A0426D
:104F300000D22046044602990AA88978012907D0A0
:104F400013360599B6B28E4204D3012707E006E175
:104F5000761DF6E78119022201A8FBF78EFF03995F
:104F6000009808318E462FE084466946026A8B8895
:104F700020300DE0918B994203D3012F7ED19942CD
:104F80007CD9A94200D80D46A14200D30C46126834
:104F90008242EFD10498002804D16046006802E004
:104FA00015E0BFE08AE070450ED0018D994203D331
:104FB000012F09D1994207D98D4200D30D468C4269
:104FC00000D80C46012F59D17045CDD1BAE00898D0
:104FD0000090002F72D1009902221C310298FBF739
:104FE00054FF00281ED100982030C17802988078A4
:104FF000814217D1012808D1009802990222083075
:10500000C91CFBF742FF00281AD0029880780228BA
:1050100008D10098029910220830C91CFBF735FF0F
:1050200000280DD00098808BA84200D80546A042E9
:1050300000D22046044602988078012826D003E05A
:1050400002988078012805D013360798B6B2012857
:105050001ED021E000984A490089884216D18A98DA
:10506000FFF7ACFE0146009800F08CF80099098C1F
:105070004843009989694018022200E038E002990B
:10508000491DFBF7FAFE01200790D4E7761DDCE707
:10509000B61C0020B6B207900598864201D30127BE
:1050A00005E00AA88119022201A8FBF7E6FE039A8F
:1050B0000099083209980968944630E01AE086465B
:1050C0006A46938820300DE08A8B9A4203D3012FE1
:1050D0000ED19A420CD9AA4200D81546A24200D35A
:1050E000144609688142EFD1049800282AD102E0D1
:1050F0000120049026E07046006860450FD0028DC4
:10510000016A9A4203D3012F09D19A4207D99542E5
:1051100000D31546944200D81446012FE8D16045CB
:10512000CDD10FE00298C078022805D1029800790D
:10513000292801D1B61CB6B2761D0598B6B28642B2
:1051400000D301270598811B042902D3864200D28F
:1051500093E604980028FBD1A54203D906987FB0B6
:105160000CB0F0BD224629468A9801F083FB0690D8
:10517000F5E70000FFFF0000600400206407000066
:105180000229000030B5024623239B5C0020012B3E
:105190001AD112890D4B9A4216D10D4A0923126871
:1051A0001B02D318A032DB6E127B0AE045010C888B
:1051B0005D5B24052D05240D2D0DAC4204D0401C53
:1051C000C0B28242F2D8002030BD000002290000A7
:1051D0006004002006490922096812028918800823
:1051E000C96E400108180188002900D100207047CD
:1051F0006004002010B50446022000F033F80D488A
:1052000000210268092000021018A032C36E107B32
:1052100005E04A019A5A002A04D0491CC9B28842C2
:10522000F7D810BD48011C52C018026904210A4376
:10523000026110BD6004002010B504460146042040
:1052400002F02EFC002808D00448054900684018E8
:1052500021463C300BF0B0FA432010BD6004002022
:105260006407000004490A683D21490151180A7B7E
:1052700002430A73704700006004002000B5113833
:10528000C0B2FFF7A7FF002804D001220169520530
:105290001143016100BD0000F3B597B00D88488847
:1052A0000590081D1DC80DAE1DC68C8ACE8A087ECD
:1052B0001390C869203101900878009048780490D4
:1052C00088780390C87802900F7900F0BFFD00281D
:1052D00017D10120400284425FD8B4425DD8002F2C
:1052E00001D1B44259D114A9284601F0ABFA0028E3
:1052F00006D115AA1499059801F094FA002802D055
:10530000602019B0F0BD149D11A92846183006F090
:1053100009FA10A88088002810D0284612A9203049
:1053200006F000FA10A8838800892A8D1818696A87
:1053300010188A8B904203D16120E2E74820E0E711
:1053400015982C4B02899A4227D12322125C012AFC
:1053500023D1006800681690139801281FD1684671
:10536000808E29221202801A030001F07CFD0604BF
:10537000180404070A18022C0FD110E0072C0CD1D6
:105380000DE0042C09D3E00707D1012F07D1A64275
:1053900003D3042E01D3F00701D04220B1E70298D5
:1053A0000B90039B049A0A9309920098019A0C9718
:1053B00008900696059407920DA81DC8019002A8B2
:1053C0001CC013980B4600902A461699179800F0B7
:1053D000B1F9002895D168460649808EFF31884290
:1053E00005D01798018800200A4601F043FA0020F2
:1053F00087E7000003280000F3B5A5B008881A90DD
:1054000088780C4611901022091D13A8FDF755FC51
:10541000A08A1090A17D68460172E07D0F90207EE9
:105420002090677EA07E1F900020064601461290C5
:1054300020A801810F20BB4C2390BB492068401855
:10544000199000F003FD00280BD1012110984902AA
:1054500088425FD821A91A9801F0F4F9002802D0F7
:10546000602027B0F0BD2198179006F0FFF81A9938
:1054700088420CD102A801901698009013AD0ECD71
:10548000119806F0B7F8002801D06320E9E76846D4
:10549000017A8806800F05D0012012902068A03084
:1054A000007B4600C80703D01298401CB61C12901F
:1054B000080603D51298401CB61C129017980DA927
:1054C00018301D9006F02EF96846129C808EA41CA0
:1054D000A04237D317980EA92030019006F022F988
:1054E0006846018F00290DD01798179A6B46406ABD
:1054F0009B8E128D5918808B5118081AA04201D228
:105500006120AEE71798846911982568012803D0B7
:10551000022803D04220A4E7052000E01320E08306
:105520002A4639460F9806F0B3F8422899D0199FB9
:10553000E28B4037788B398B411A109810188019FC
:10554000814201DA48208CE70EA9019806F0EAF8BA
:105550006846008F0028179802D0406A808B00E0D0
:10556000008D2599401C0880259801210088A08382
:10557000259802220088401CA8836C482081204680
:1055800020301790C1700021817081711998398B7A
:10559000406D40186946A061097A0170A0692946EA
:1055A0001C31401CFBF769FC11980128A0697DD0D3
:1055B000102213A9C01CFBF760FC2846102213A977
:1055C0000830FBF75AFC388B133038832E462036D0
:1055D0001198F0701098E8831F98B070109820848C
:1055E000109828841998398B406D4018A8610021C3
:1055F000109AFBF746FC398B1098081838831799D6
:105600000120087117990020487130716846007AAE
:10561000810701D50121317101070227002902DA32
:10562000317939433171410703D53179042211436E
:105630003171400603D530790821084330710F9845
:1056400070712098B07121461D9806F094F821469B
:10565000019806F071F829461D9806F08CF8294645
:10566000019806F069F81298002841D068461A9906
:105670008181A18BC18107844784012408A804711A
:1056800022A80A9008A88473239941730F9938209F
:10569000014008A801730721C173002505746846FD
:1056A000007AC00708D02248694600E02BE0088253
:1056B00003A924A8FFF7F0FD6846007A8006800F52
:1056C00007D01B486946401E088203A924A8FFF79B
:1056D000E3FD6846007A00060AD5292109026846DA
:1056E000018208A84473057303A924A8FFF7D4FD19
:1056F000259801881298401C081882B2002001F0F9
:10570000B9F80020ADE6022213A9C01CFBF7B5FBD7
:105710002846022213A90830FBF7AFFB388B401D47
:1057200053E7000060040020640700000328000025
:1057300003290000FFB55248524A006887B082181A
:10574000069210AA109B0126169F9288012B04D165
:105750004D4B9A4201D1A030067B069D3446403520
:10576000688B2B8B7C43C31A099820300390A3428B
:1057700022DA48200BB0F0BD2320405C012819D16B
:1057800008896C46208098420CD03F4C641EA04291
:1057900008D0641CA04205D0641CA04202D0A41C06
:1057A000A04207D1384CFF3CA04201D0904201D129
:1057B0006220DFE7096801E029231B020398814288
:1057C000DAD109981B9984691898224605F060FF80
:1057D0004228CFD01C98012804D11598874201D2C5
:1057E0004220C7E71598E083204620301C99059099
:1057F000817027840A98808B401CA0831098012810
:1058000014D02046102211A90830FBF736FB059969
:105810001098C8700698298B406D4018A061298B9C
:10582000384670430818288300250FE011A80FC8D8
:1058300008340FC4183CEAE72846A16978430818E1
:10584000159A1799FBF719FB6D1CEDB2B542F3D30E
:1058500005991898487105991998087105991A9829
:10586000887109982146183005F085FF2146039874
:1058700005F062FF0798A18B018000207AE7000005
:10588000600400206407000002290000FFB58FB00B
:1058900014460E78102205A8891CFDF70EFA4F4811
:1058A0004F490068451800F0D1FA00281ED1002C9D
:1058B00057D0012E09D16846808A4A49884204D1CE
:1058C0002846A968083081424BD128461030296902
:1058D0000390814209D00AA9284605F023FF6846B3
:1058E000018D601E0D90814202D2482013B0F0BDA0
:1058F000284608300CA9049005F014FF6846008E75
:10590000002814D0EF680AA93846183005F00AFFBD
:10591000384620300CA905F005FF6846398D008D0A
:1059200009186846008E401C081887B200E001275D
:1059300001200004C01BA04201D26120D6E72C69DF
:10594000286801901298012802D0022803D008E0AC
:105950000520C00200E024486085012E03D0022EFD
:1059600005D04220C2E720460830022202E020464D
:105970000830102205A9FBF780FA20463146203076
:10598000064601730F98214607802785039805F086
:10599000F2FE2146049805F0CFFE27461837E7614E
:1059A0006662A76126620D9884B20BE028460199D1
:1059B00005F0E1FE3846019905F0BEFE2868641E38
:1059C000A4B20190002CF1D10F9801880D9808180D
:1059D00082B2002000F04EFF002087E76004002024
:1059E000640700000118000001280000F7B5064612
:1059F00036480F460068364982B044183046FFF7F3
:105A0000DDF9050060D02046243000900AF0EAFE5F
:105A1000002859D12869000356D500980AF09CFE49
:105A200004464FE0A088B0424BD1202231460020EE
:105A300005F018FB060018D0A068002F017B427B00
:105A400015D0334604980BF04BFA00200122296947
:105A5000D2049143296100282AD0692802D0304617
:105A6000FFF7EAFB002005B0F0BD6420FBE70A2940
:105A700006D00C290AD00E290ED0082912D023E016
:105A80003246214628460CF0E7FADFE73246214647
:105A900028460BF01BFFD9E73246214628460CF07A
:105AA00011FAD3E73246214628460CF0A1F8CDE79B
:105AB000214600980AF09DFE0121204605F02EFBAC
:105AC000CDE72468002CADD14120CCE76004002054
:105AD00064070000024608480849006841188868C1
